:1003D600045600000000085C000000000000000059
:1003E600084E0102030405060708016600022600FE
:1003F60000014B00C10002670000024900000264D0
:10040600000011283F065B4F666D7D077F6F777C86
:10041600395E7971001039D7EEDEBEEDDDBDEBDB5E
:10042600BB7E7D7B77B7E701220001230001240014
:030436000125009D
:10053C00438901758CFC758A18D2AFD2A9D28C2252
:10051E00D3EF9400EE940040147D6E7C00ED1D70C0
:0D052E00011CED4C70F7EF1F70E61E80E31E
:01053B00229D
:100497007590F0AE90EE64F06036E521702F7F0A1C
:1004A700FE12051EAF907590FFEF440FF590AF90C9
:1004B700752101E4FEEEC3941074809480500B7490
:1004C700392EF8E66F60030E80EBAF06227FFF221E
:0504D700E4F5217FFFA8
:0104DC0022FD
:10043A00E4F580E52214601814602314602E240366
:10044A00703AC2A0D2A1D2A2D2A37428255680287B
:10045A00D2A0C2A1D2A2D2A374282557801AD2A0B0
:10046A00D2A1C2A2D2A374282558800CD2A0D2A1AC
:10047A00D2A2C2A374282559F8E6F5800522D3E54D
:0C048A00229403748094804003E4F52267
:010496002243
:1004DD00E523146013047038E54B25E0F5246030F6
:1004ED00E4F54CF54D052322E52430E004D2B1802E
:1004FD0002C2B1E5247007F523D2B1F54B22D3E545
:10050D004D94C8E54C94004007E4F54CF54D152489
:01051D0022BB
:10000E00E4F508F9F509F50AD2B0D2B112053C12A1
:10001E000497EFFD7C00C3940A748094805038E4FA
:10002E00F509AE660566745C2EF8A607E566F582E0
:10003E003395E0F583D3E5829404E5836480948060
:10004E0040067566040201A985575685585785598D
:10005E00587559080201A9ED640B4C700B750A0115
:10006E00F9C2B0F5660201A9EFFD7C00640C7024A4
:10007E00F50AF9D2B0F566FBEBC394047480948054
:10008E0040030201A974562BF8E4F6745C2BF8E4D5
:10009E00F60B80E4ED640D4C600302018FE50A60FF
:1000AE0032E4FBEBC3940474809480501B745C2B7D
:1000BE00F8E6FE744E2BF8A60674562BF8E4F6748A
:1000CE005C2BF8E4F60B80DBE4F9F566F50AD2B0AA
:1000DE000201A9E4FBEBFD7C00C3940474809480C0
:1000EE005011744E2BF8E6FE745C2BF8E6B5060341
:1000FE000B80E2C3ED9404EC648094805018E4FB12
:10010E00EBC3940474809480500C745C2BF8E664FA
:10011E000970030B80EAEBC394047480948050370B
:10012E0075560F75570F75580F75590FE4F9F5661B
:10013E00D2B0F526F527750906754B01D2000508D4
:10014E00E508C39403748094804050E4F508C2B06F
:10015E00C2B17590FF80FBE4FBEBC39404748094F2
:10016E0080500F74562BF8E4F6745C2BF8E4F60B03
:10017E0080E7E4F5087901C2B0F526F527F566802B
:10018E001AEF640A7015855859855758855657F5D4
:10019E0056AE661566745C2EF8E4F6E5666035D3E9
:1001AE00E54A940FE5499427402FE4FBE566FD33BD
:1001BE0095E0FCEBC39DEC6480F874809850097454
:1001CE005C2BF8E4F60B80E4E4F566F549F54A7528
:1001DE004B048005E4F549F54A300023D3E56894D5
:1001EE00B7E567940B4009E4F567F568C200801D1A
:1001FE00EFF46019E4F567F568F564F565800EE4D3
:10020E00F567F568EFF46005E4F549F54AD3E55B6B
:10021E0094F4E55A9401500302001DE4F55AF55B7F
:10022E00D3E5099400748094804040E50930E015D0
:10023E00E4FBEBC3940474809480501574562BF831
:10024E0076100B80ED75560F75570F75580F755943
:10025E000F1509E5097014FBEBC3940874809480A4
:10026E00500974562BF8E4F60B80EDE9600DD3E5DA
:10027E002794E7E52694034002D2B0D3E565942C8B
:10028E00E5649401400CE4F564F565F9F566D2B0C9
:08029E00F50A1204DD02001D47
:03000B000202A648
:0902A600C0E0C0D075D000C0001A
:1002AF000525C3E525946474809480400B75250063
:1002BF000565E56570020564055BE55B7002055A2F
:1002CF00D394E8E55A94034006755A00755B000510
:1002DF0027E52770020526D39410E52694274006BC
:1002EF00752627752710054DE54D7002054CD394E3
:1002FF000FE54C94274006754C27754D100568E5A2
:10030F006870020567D3940FE567942740067567F9
:10031F0027756810054AE54A70020549D39420E510
:10032F0049944E400675490D754A4012043A758C32
:04033F00FC758A18A7
:07034300D000D0D0D0E03261
:0300000002034AAE
:0C034A00787FE4F6D8FD7581680203910D
:1003560002000EE493A3F8E493A34003F68001F2AF
:1003660008DFF48029E493A3F85407240CC8C333A8
:10037600C4540F4420C8834004F456800146F6DF77
:10038600E4800B01020408102040809003D6E47E2E
:10039600019360BCA3FF543F30E509541FFEE4936C
:1003A600A360010ECF54C025E060A840B8E493A333
:1003B600FAE493A3F8E493A3C8C582C8CAC583CA5E
:1003C600F0A3C8C582C8CAC583CADFE9DEE780BE16
:0104390000C2
:00000001FF
